:1000000009C019C018C017C016C015C014C013C04D
:1000100012C011C011241FBECFE9CDBF10E0A0E671
:10002000B0E0E0E8F2E002C005900D92AC36B10716
:10003000D9F702D023C1E4CFCF93DF93CDB7DD272B
:10004000C450CDBFBA98C29ABC98BB9AC398B99A0B
:10005000C198B89AC09883E0C39A2FE732E392E040
:10006000215030409040E1F700C00000C398EFE716
:10007000F2E322E0E150F0402040E1F700C0000050
:10008000815051F780E090E0F12C00E060E670E0F4
:1000900011E06894AA24A1F86894882484F86894EC
:1000A000BB24B7F80F2EF3E07F2EF02DEE24EA9458
:1000B0000F2EF4E19F2EF02D612C512C2CC08C3290
:1000C00031E0930710F4C09A08C08134EFE19E0735
:1000D00010F4C09802C0862D952D292DF0E5FA95D3
:1000E000F1F70000B49B16C0B29912C0EFEDFEE22A
:1000F0003197F1F700C00000B2990AC038B33A2531
:1001000038BBC19B02C0C39A01C0C398B29BFECF4B
:10011000215021F70196B499D2CFC098A02FB4995D
:1001200010C0C39A212F06C0C39A2F5F19F4B49B45
:10013000FECF09C0F0E5FA95F1F70000B49BF4CFCB
:1001400003C0202F01C02E2DB49B0DC0C398412F9A
:1001500003C0C3984F5F49F030E53A95F1F70000CE
:10016000B499F7CF04C0402F02C04E2D2E2DA111FF
:1001700017C02059293408F072C028EB240F25320B
:1001800048F409830A830B830C83F02EC02EDB2CEA
:10019000A12FC5CF4452433108F46AC0F02E60C08D
:1001A000A13001F5483450F530E050E0220F331F04
:1001B000421753074CF0E1E0F0E0EC0FFD1FEC0DAF
:1001C000F11D20812D292083D69441F4C394E3E0CE
:1001D000EC1510F0DB2C02C0DB2CA82DF394A23020
:1001E000D1F50CC0A33021F44834D0F5A82D97CF19
:1001F000A03109F03FC0483408F491CFF0E2FF127B
:100200002FC029809B01502F1DC031904D9034107C
:1002100004C04F5F4430C9F702C0443071F451113B
:1002200004C028B32A2528BB1BC0513011F4C19A41
:1002300017C05230A9F4C19813C05F5F2C5F3F4FC5
:10024000533071F0F90140814211F7CFDE0112966F
:100250003196412FDACFA11162CFF02E01C0F02EDE
:10026000C19B02C0C39A01C0C398B49BFECF53CFB9
:10027000A72D55CFA23009F052CFC0CFF894FFCFB1
:0C02800001000001010000020100000369
:00000001FF
