:1000000009C019C018C017C016C015C014C013C04D
:1000100012C011C011241FBECFE9CDBF10E0A0E671
:10002000B0E0ECE2F1E002C005900D92A436B10719
:10003000D9F75CD079C0E4CF2FB520622FBDEFE2B5
:10004000FAE23197F1F700C000002FB52F7D2FBDE8
:10005000E7E1F5E13197F1F700C0000030E220E878
:1000600040E060E8FC01E40FF11D5081522399F05B
:100070005FB550625FBDEFECF2E03197F1F700C081
:1000800000005FB55F7D5FBDEFE6F8E03197F1F707
:1000900000C0000012C05FB550625FBDEFECF2E03F
:1000A0003197F1F700C000005FB55F7D5FBDEFECF9
:1000B000F2E03197F1F700C00000269511F44F5F90
:1000C000262F315079F68FB580628FBD8FEC92E08C
:1000D0000197F1F700C000008FB58F7D8FBDEFE76E
:1000E000FBEB3197F1F700C000000895B99A8FB586
:1000F0008F7D8FBD81E08FBD89E083BF8DE386BF9B
:1001000086B763E005D089BD80E690E095DFFFCF3C
:10011000991B79E004C0991F961708F0961B881F59
:0C0120007A95C9F780950895F894FFCFF8
:04012C0001000001CD
:00000001FF
